:020000021000EC
:10F000000C9466F80C9485F80C9485F80C9485F8AB
:10F010000C9485F80C9485F80C9485F80C9485F87C
:10F020000C9485F80C9485F80C9485F80C9485F86C
:10F030000C9485F80C9485F80C9485F80C9485F85C
:10F040000C9485F80C9485F80C9485F80C9485F84C
:10F050000C9485F80C9485F80C9485F80C9485F83C
:10F060000C9485F80C9485F80C9485F80C9485F82C
:10F070000C9485F80C9485F80C9485F80C9485F81C
:10F080000C9485F80C9485F80C9485F80C9485F80C
:10F090000C9485F80C9485F80C9485F80C9485F8FC
:10F0A0000C9485F80C9485F80C9485F80C9485F8EC
:10F0B0000C9485F80C9485F80C9485F80C9485F8DC
:10F0C0000C9485F80C9485F80C9485F811241FBED7
:10F0D000CFEFD1E2DEBFCDBF12E0A0E0B2E0E6E3C9
:10F0E000F9EF01E00BBF02C007900D92A833B10702
:10F0F000D9F713E0A8E3B2E001C01D92A334B10731
:10F10000E1F70E949EF90C9499FC0C9400F8909100
:10F110003802913019F0923041F008959091C0007A
:10F1200095FFFCCF8093C60008959091C80095FF8D
:10F13000FCCF8093CE0008951F93982F95959595B9
:10F1400095959595905D182F1F701A304CF4105DB1
:10F15000892F0E9487F8812F0E9487F81F910895B8
:10F16000195A892F0E9487F8812F0E9487F81F91D2
:10F170000895EF92FF920F931F9380913802813090
:10F1800069F1823031F080E01F910F91FF90EF9094
:10F190000895EE24FF2487018091C80087FD17C0E1
:10F1A0000894E11CF11C011D111D81E4E81682E4A4
:10F1B000F8068FE0080780E0180770F3E0913A0244
:10F1C000F0913B0209958091C80087FFE9CF8091BB
:10F1D000CE001F910F91FF90EF900895EE24FF2431
:10F1E00087018091C00087FD17C00894E11CF11CC5
:10F1F000011D111D81E4E81682E4F8068FE008077E
:10F2000080E0180770F3E0913A02F0913B02099513
:10F210008091C00087FFE9CF8091C6001F910F91B8
:10F22000FF90EF9008951F930E94B9F8182F0E9445
:10F2300087F8113634F410330CF01053812F1F91DE
:10F2400008951755812F1F9108951F930E9413F958
:10F25000182F0E9413F91295107F810F1F910895A6
:10F2600020913802882339F0213031F0223061F0CA
:10F2700081508823C9F708959091C00097FFFCCF73
:10F280009091C6008150F5CF9091C80097FFFCCFB8
:10F290009091CE008150EDCF1F93182F0E94B9F8A6
:10F2A000803281F0809139028F5F809339028530FE
:10F2B00011F01F910895E0913A02F0913B020995F7
:10F2C0001F91089584E10E9487F8812F0E9487F89A
:10F2D00080E10E9487F8EDCF0E94B9F8803271F08A
:10F2E000809139028F5F80933902853009F008954B
:10F2F000E0913A02F0913B020995089584E10E9461
:10F3000087F880E10E9487F8089515C0889A2FEF4A
:10F3100031EE44E0215030404040E1F700C00000B1
:10F3200088982FEF31EE44E0215030404040E1F723
:10F3300000C000008150882349F70895EF92FF92A2
:10F340000F931F93DF93CF9300D000D0CDB7DEB7DC
:10F35000000081E08093380280E18093C400109225
:10F36000C5001092C00086E08093C20088E18093BF
:10F37000C1006898709A809A81E00E9485F90E9485
:10F38000B9F88033C1F18133C9F1803409F456C032
:10F39000813409F45AC0823459F1853409F467C0C4
:10F3A000803549F1823539F1813529F1853509F406
:10F3B00064C0863509F46CC0843609F475C084379E
:10F3C00009F4E0C0853709F43AC1863709F44BC027
:10F3D000813209F44DC1809139028F5F80933902E7
:10F3E000853069F6E0913A02F0913B020995C7CF6A
:10F3F00084E10E9430F90E946CF9C1CF0E94B9F8F3
:10F40000803249F784E10E9487F881E40E9487F8FE
:10F4100086E50E9487F882E50E9487F880E20E94D4
:10F4200087F889E40E9487F883E50E9487F880E5E1
:10F430000E9487F880E10E9487F8A1CF0E94B9F866
:10F440008638C8F20E94B9F8D6CF0E94B9F8803841
:10F4500009F430C1813809F429C1823809F43FC167
:10F46000883909F401C180E00E944CF988CF85E019
:10F470000E9430F90E946CF982CF0E94B9F8809303
:10F480003C020E94B9F880933D020E946CF977CF4C
:10F490000E94B9F8803309F411C183E00E9430F969
:10F4A00080E00E944CF96BCF0E94B9F880933F0333
:10F4B0000E94B9F880933E03809142038E7F80932F
:10F4C00042030E94B9F8853429F480914203816097
:10F4D0008093420380913E0390913F030097A1F0F7
:10F4E0006EE3E62E62E0F62E00E010E00E94B9F82E
:10F4F000D7018D937D010F5F1F4F80913E03909147
:10F500003F030817190790F30E94B9F8803209F0F9
:10F5100062CF8091420380FFF8C080913C029091BD
:10F520003D02880F991F90933D0280933C022091E9
:10F530003E0330913F0321153105E9F04EE3E42EFF
:10F5400042E0F42E00E010E0F70161917F010E949B
:10F550008BFC80913C0290913D02019690933D027C
:10F5600080933C020F5F1F4F20913E0330913F0379
:10F570000217130748F384E10E9487F880E10E9494
:10F5800087F8FDCE0E94B9F880933F030E94B9F836
:10F5900080933E0380913C0290913D0297FD2BC1E8
:10F5A000209142032D7F20934203880F991F90934F
:10F5B0003D0280933C020E94B9F8853409F415C1DC
:10F5C000809142038E7F809342030E94B9F880327B
:10F5D00009F0D5CE84E10E9487F800E010E012C067
:10F5E000E0913C02F0913D0284910E9487F8809165
:10F5F0003C0290913D02019690933D0280933C0223
:10F600000F5F1F4F80913E0390913F03081719072A
:10F6100038F58091420380FD66C081FFE1CF809183
:10F620003C0290913D02A0E0B0E080509040AF4F8E
:10F63000BF4FABBFFC0187910E9487F8D8CF0E94D3
:10F64000B9F8803209F0C7CE84E10E9487F88EE1D4
:10F650000E9487F887E90E9487F884E00E9487F873
:10F6600080E10E9487F88BCE83E00E944CF987CE20
:10F670000E94B9F8813209F082CE0E94B9F8813235
:10F6800009F07DCE809A889810924003E0E0F0E087
:10F69000E050FE4F8081882309F4BDC00E9487F8A6
:10F6A000E0914003EF5FE0934003F1CF81E00E94DF
:10F6B0004CF965CE82E00E944CF961CE0E94B9F807
:10F6C0000E94B9F8082F0E94B9F8002309F489C0F4
:10F6D000013009F496C084E00E944CF950CE80E1DC
:10F6E0000E944CF94CCE80913C0290913D020E94C8
:10F6F00083FC0E9487F880913C0290913D02019624
:10F7000090933D0280933C027BCF80913D02880F15
:10F71000880B8170809341038BBF80913C02909154
:10F720003D02880F991F90933D0280933C02809187
:10F730003E0380FF09C080913E0390913F030196F4
:10F7400090933F0380933E03F894F999FECF1127DD
:10F75000E0913C02F0913D02CEE3D2E080913E0385
:10F7600090913F03103091F40091570001700130E7
:10F77000D9F303E000935700E8950091570001701A
:10F780000130D9F301E100935700E89509901990F1
:10F790000091570001700130D9F301E00093570048
:10F7A000E8951395103898F01127009157000170D3
:10F7B0000130D9F305E000935700E8950091570018
:10F7C00001700130D9F301E100935700E8953296BA
:10F7D000029709F0C7CF103011F00296E5CF11243F
:10F7E000CACE8EE10E944CF9CACD8091420381605D
:10F7F00080934203EACE2091420322602093420389
:10F80000D4CE87E90E944CF9BACD789B77C088980E
:10F8100081E30E9487F88AE00E9487F88DE00E94C9
:10F8200087F88AE30E9487F880E20E9487F80E94A6
:10F83000B9F8082F0E9487F8043739F3023781F1AD
:10F840000737B1F0053759F0023609F440C00A36DF
:10F8500011F7E0913A02F0913B020995DCCF0E944A
:10F86000B9F80E9487F80E94B9F80E9487F8F7CF8C
:10F870000E94B9F80E9487F80E9425F9E82E0E949C
:10F8800025F9082F0E94B9F80E9487F80E9425F9EF
:10F89000EC821B82EB81FC81E00FF11D8083BBCFEA
:10F8A0000E94B9F80E9487F80E9425F9E82E0E946C
:10F8B00025F9082F8DE30E9487F8EA821982E981F1
:10F8C000FA81E00FF11D80810E949CF8A4CF82E6AE
:10F8D0000E9487F885E70E9487F883E70E9487F8EF
:10F8E00080E885BF1092740010927500E0E0F1E1AD
:10F8F00081913097E9F7E0E0F1E1FACF889A80E36F
:10F900000E9487F888CFF999FECF92BD81BDF89A01
:10F91000992780B50895262FF999FECF1FBA92BD79
:10F9200081BD20BD0FB6F894FA9AF99A0FBE0196E0
:06F930000895F894FFCFDA
:10F9360041546D656761424F4F54202F20417264D8
:10F9460075696E6F204D656761202D20284329203B
:10F9560041726475696E6F204C4C43202D203039FE
:08F96600303933300A0D008036
:040000031000F000F9
:00000001FF
